{
  "_format": "hh3-artifact-1",
  "contractName": "CheckChain",
  "sourceName": "contracts/CheckChain.sol",
  "abi": [
    {
      "inputs": [
        {
          "internalType": "address",
          "name": "tokenAddress",
          "type": "address"
        }
      ],
      "stateMutability": "nonpayable",
      "type": "constructor"
    },
    {
      "anonymous": false,
      "inputs": [
        {
          "indexed": true,
          "internalType": "uint256",
          "name": "gameId",
          "type": "uint256"
        },
        {
          "indexed": true,
          "internalType": "address",
          "name": "player1",
          "type": "address"
        },
        {
          "indexed": false,
          "internalType": "uint256",
          "name": "stake",
          "type": "uint256"
        }
      ],
      "name": "GameCreated",
      "type": "event"
    },
    {
      "anonymous": false,
      "inputs": [
        {
          "indexed": true,
          "internalType": "uint256",
          "name": "gameId",
          "type": "uint256"
        },
        {
          "indexed": false,
          "internalType": "address",
          "name": "winner",
          "type": "address"
        }
      ],
      "name": "GameFinished",
      "type": "event"
    },
    {
      "anonymous": false,
      "inputs": [
        {
          "indexed": true,
          "internalType": "uint256",
          "name": "gameId",
          "type": "uint256"
        },
        {
          "indexed": true,
          "internalType": "address",
          "name": "player2",
          "type": "address"
        }
      ],
      "name": "GameJoined",
      "type": "event"
    },
    {
      "inputs": [
        {
          "internalType": "uint256",
          "name": "stake",
          "type": "uint256"
        }
      ],
      "name": "createGame",
      "outputs": [
        {
          "internalType": "uint256",
          "name": "",
          "type": "uint256"
        }
      ],
      "stateMutability": "nonpayable",
      "type": "function"
    },
    {
      "inputs": [
        {
          "internalType": "uint256",
          "name": "gameId",
          "type": "uint256"
        },
        {
          "internalType": "address",
          "name": "winner",
          "type": "address"
        }
      ],
      "name": "finishGame",
      "outputs": [],
      "stateMutability": "nonpayable",
      "type": "function"
    },
    {
      "inputs": [],
      "name": "gameCount",
      "outputs": [
        {
          "internalType": "uint256",
          "name": "",
          "type": "uint256"
        }
      ],
      "stateMutability": "view",
      "type": "function"
    },
    {
      "inputs": [
        {
          "internalType": "uint256",
          "name": "",
          "type": "uint256"
        }
      ],
      "name": "games",
      "outputs": [
        {
          "internalType": "address",
          "name": "player1",
          "type": "address"
        },
        {
          "internalType": "address",
          "name": "player2",
          "type": "address"
        },
        {
          "internalType": "uint256",
          "name": "stake",
          "type": "uint256"
        },
        {
          "internalType": "enum CheckChain.GameStatus",
          "name": "status",
          "type": "uint8"
        }
      ],
      "stateMutability": "view",
      "type": "function"
    },
    {
      "inputs": [
        {
          "internalType": "uint256",
          "name": "gameId",
          "type": "uint256"
        }
      ],
      "name": "joinGame",
      "outputs": [],
      "stateMutability": "nonpayable",
      "type": "function"
    },
    {
      "inputs": [],
      "name": "token",
      "outputs": [
        {
          "internalType": "contract IERC20",
          "name": "",
          "type": "address"
        }
      ],
      "stateMutability": "view",
      "type": "function"
    }
  ],
  "bytecode": "0x60a060405234801562000010575f80fd5b5060405162001269380380620012698339818101604052810190620000369190620000d6565b8073ffffffffffffffffffffffffffffffffffffffff1660808173ffffffffffffffffffffffffffffffffffffffff16815250505062000106565b5f80fd5b5f73ffffffffffffffffffffffffffffffffffffffff82169050919050565b5f620000a08262000075565b9050919050565b620000b28162000094565b8114620000bd575f80fd5b50565b5f81519050620000d081620000a7565b92915050565b5f60208284031215620000ee57620000ed62000071565b5b5f620000fd84828501620000c0565b91505092915050565b608051611135620001345f395f818161020d0152818161061c0152818161087a0152610a1001526111355ff3fe608060405234801561000f575f80fd5b5060043610610060575f3560e01c8063117a5b901461006457806348e837b9146100975780634d1975b4146100c757806377744fab146100e5578063efaa55a014610101578063fc0c546a1461011d575b5f80fd5b61007e60048036038101906100799190610a69565b61013b565b60405161008e9493929190610b55565b60405180910390f35b6100b160048036038101906100ac9190610a69565b6101b1565b6040516100be9190610b98565b60405180910390f35b6100cf61048d565b6040516100dc9190610b98565b60405180910390f35b6100ff60048036038101906100fa9190610bdb565b610492565b005b61011b60048036038101906101169190610a69565b61075e565b005b610125610a0e565b6040516101329190610c74565b60405180910390f35b6001602052805f5260405f205f91509050805f015f9054906101000a900473ffffffffffffffffffffffffffffffffffffffff1690806001015f9054906101000a900473ffffffffffffffffffffffffffffffffffffffff1690806002015490806003015f9054906101000a900460ff16905084565b5f600a8214806101c15750601982145b806101cc5750603282145b61020b576040517f08c379a000000000000000000000000000000000000000000000000000000000815260040161020290610ce7565b60405180910390fd5b7f000000000000000000000000000000000000000000000000000000000000000073ffffffffffffffffffffffffffffffffffffffff166323b872dd3330856040518463ffffffff1660e01b815260040161026893929190610d05565b6020604051808303815f875af1158015610284573d5f803e3d5ffd5b505050506040513d601f19601f820116820180604052508101906102a89190610d6f565b6102e7576040517f08c379a00000000000000000000000000000000000000000000000000000000081526004016102de90610de4565b60405180910390fd5b5f808154809291906102f890610e2f565b919050555060405180608001604052803373ffffffffffffffffffffffffffffffffffffffff1681526020015f73ffffffffffffffffffffffffffffffffffffffff1681526020018381526020015f600281111561035957610358610ae2565b5b81525060015f805481526020019081526020015f205f820151815f015f6101000a81548173ffffffffffffffffffffffffffffffffffffffff021916908373ffffffffffffffffffffffffffffffffffffffff1602179055506020820151816001015f6101000a81548173ffffffffffffffffffffffffffffffffffffffff021916908373ffffffffffffffffffffffffffffffffffffffff160217905550604082015181600201556060820151816003015f6101000a81548160ff0219169083600281111561042c5761042b610ae2565b5b02179055509050503373ffffffffffffffffffffffffffffffffffffffff165f547f7dfb67e9ff596fca4da65c7eedb128cd1aac553af54b3c0cb733625a2480d8bd8460405161047c9190610b98565b60405180910390a35f549050919050565b5f5481565b5f60015f8481526020019081526020015f209050600160028111156104ba576104b9610ae2565b5b816003015f9054906101000a900460ff1660028111156104dd576104dc610ae2565b5b1461051d576040517f08c379a000000000000000000000000000000000000000000000000000000000815260040161051490610ec0565b60405180910390fd5b805f015f9054906101000a900473ffffffffffffffffffffffffffffffffffffffff1673ffffffffffffffffffffffffffffffffffffffff168273ffffffffffffffffffffffffffffffffffffffff1614806105c75750806001015f9054906101000a900473ffffffffffffffffffffffffffffffffffffffff1673ffffffffffffffffffffffffffffffffffffffff168273ffffffffffffffffffffffffffffffffffffffff16145b610606576040517f08c379a00000000000000000000000000000000000000000000000000000000081526004016105fd90610f28565b60405180910390fd5b5f600282600201546106189190610f46565b90507f000000000000000000000000000000000000000000000000000000000000000073ffffffffffffffffffffffffffffffffffffffff1663a9059cbb84836040518363ffffffff1660e01b8152600401610675929190610f87565b6020604051808303815f875af1158015610691573d5f803e3d5ffd5b505050506040513d601f19601f820116820180604052508101906106b59190610d6f565b6106f4576040517f08c379a00000000000000000000000000000000000000000000000000000000081526004016106eb90610ff8565b60405180910390fd5b6002826003015f6101000a81548160ff0219169083600281111561071b5761071a610ae2565b5b0217905550837fb7f35e624e036288272fbf3342c09219261ff29fdddd826989b289134e9ae535846040516107509190611016565b60405180910390a250505050565b5f60015f8381526020019081526020015f2090505f600281111561078557610784610ae2565b5b816003015f9054906101000a900460ff1660028111156107a8576107a7610ae2565b5b146107e8576040517f08c379a00000000000000000000000000000000000000000000000000000000081526004016107df90611079565b60405180910390fd5b3373ffffffffffffffffffffffffffffffffffffffff16815f015f9054906101000a900473ffffffffffffffffffffffffffffffffffffffff1673ffffffffffffffffffffffffffffffffffffffff1603610878576040517f08c379a000000000000000000000000000000000000000000000000000000000815260040161086f906110e1565b60405180910390fd5b7f000000000000000000000000000000000000000000000000000000000000000073ffffffffffffffffffffffffffffffffffffffff166323b872dd333084600201546040518463ffffffff1660e01b81526004016108d993929190610d05565b6020604051808303815f875af11580156108f5573d5f803e3d5ffd5b505050506040513d601f19601f820116820180604052508101906109199190610d6f565b610958576040517f08c379a000000000000000000000000000000000000000000000000000000000815260040161094f90610de4565b60405180910390fd5b33816001015f6101000a81548173ffffffffffffffffffffffffffffffffffffffff021916908373ffffffffffffffffffffffffffffffffffffffff1602179055506001816003015f6101000a81548160ff021916908360028111156109c1576109c0610ae2565b5b02179055503373ffffffffffffffffffffffffffffffffffffffff16827f45c4f9cbafe186141862608c493f28b823fde4c2142bedc3f5169961a73fdd2260405160405180910390a35050565b7f000000000000000000000000000000000000000000000000000000000000000081565b5f80fd5b5f819050919050565b610a4881610a36565b8114610a52575f80fd5b50565b5f81359050610a6381610a3f565b92915050565b5f60208284031215610a7e57610a7d610a32565b5b5f610a8b84828501610a55565b91505092915050565b5f73ffffffffffffffffffffffffffffffffffffffff82169050919050565b5f610abd82610a94565b9050919050565b610acd81610ab3565b82525050565b610adc81610a36565b82525050565b7f4e487b71000000000000000000000000000000000000000000000000000000005f52602160045260245ffd5b60038110610b2057610b1f610ae2565b5b50565b5f819050610b3082610b0f565b919050565b5f610b3f82610b23565b9050919050565b610b4f81610b35565b82525050565b5f608082019050610b685f830187610ac4565b610b756020830186610ac4565b610b826040830185610ad3565b610b8f6060830184610b46565b95945050505050565b5f602082019050610bab5f830184610ad3565b92915050565b610bba81610ab3565b8114610bc4575f80fd5b50565b5f81359050610bd581610bb1565b92915050565b5f8060408385031215610bf157610bf0610a32565b5b5f610bfe85828601610a55565b9250506020610c0f85828601610bc7565b9150509250929050565b5f819050919050565b5f610c3c610c37610c3284610a94565b610c19565b610a94565b9050919050565b5f610c4d82610c22565b9050919050565b5f610c5e82610c43565b9050919050565b610c6e81610c54565b82525050565b5f602082019050610c875f830184610c65565b92915050565b5f82825260208201905092915050565b7f5374616b65206e6f7420616c6c6f7765640000000000000000000000000000005f82015250565b5f610cd1601183610c8d565b9150610cdc82610c9d565b602082019050919050565b5f6020820190508181035f830152610cfe81610cc5565b9050919050565b5f606082019050610d185f830186610ac4565b610d256020830185610ac4565b610d326040830184610ad3565b949350505050565b5f8115159050919050565b610d4e81610d3a565b8114610d58575f80fd5b50565b5f81519050610d6981610d45565b92915050565b5f60208284031215610d8457610d83610a32565b5b5f610d9184828501610d5b565b91505092915050565b7f546f6b656e207472616e73666572206661696c656400000000000000000000005f82015250565b5f610dce601583610c8d565b9150610dd982610d9a565b602082019050919050565b5f6020820190508181035f830152610dfb81610dc2565b9050919050565b7f4e487b71000000000000000000000000000000000000000000000000000000005f52601160045260245ffd5b5f610e3982610a36565b91507fffffffffffffffffffffffffffffffffffffffffffffffffffffffffffffffff8203610e6b57610e6a610e02565b5b600182019050919050565b7f47616d65206e6f742072656164790000000000000000000000000000000000005f82015250565b5f610eaa600e83610c8d565b9150610eb582610e76565b602082019050919050565b5f6020820190508181035f830152610ed781610e9e565b9050919050565b7f496e76616c69642077696e6e65720000000000000000000000000000000000005f82015250565b5f610f12600e83610c8d565b9150610f1d82610ede565b602082019050919050565b5f6020820190508181035f830152610f3f81610f06565b9050919050565b5f610f5082610a36565b9150610f5b83610a36565b9250828202610f6981610a36565b91508282048414831517610f8057610f7f610e02565b5b5092915050565b5f604082019050610f9a5f830185610ac4565b610fa76020830184610ad3565b9392505050565b7f5061796f7574206661696c6564000000000000000000000000000000000000005f82015250565b5f610fe2600d83610c8d565b9150610fed82610fae565b602082019050919050565b5f6020820190508181035f83015261100f81610fd6565b9050919050565b5f6020820190506110295f830184610ac4565b92915050565b7f47616d65206e6f7420617661696c61626c6500000000000000000000000000005f82015250565b5f611063601283610c8d565b915061106e8261102f565b602082019050919050565b5f6020820190508181035f83015261109081611057565b9050919050565b7f43616e6e6f74206a6f696e20796f7572206f776e2067616d65000000000000005f82015250565b5f6110cb601983610c8d565b91506110d682611097565b602082019050919050565b5f6020820190508181035f8301526110f8816110bf565b905091905056fea2646970667358221220fa4fc37a56467181e52c0bd76ebefb2203374ce1585c9746009052c7b52a5cd164736f6c63430008140033",
  "linkReferences": {},
  "deployedLinkReferences": {},
  "immutableReferences": {
    "26": [
      {
        "length": 32,
        "start": 525
      },
      {
        "length": 32,
        "start": 1564
      },
      {
        "length": 32,
        "start": 2170
      },
      {
        "length": 32,
        "start": 2576
      }
    ]
  },
  "inputSourceName": "project/contracts/CheckChain.sol",
  "buildInfoId": "solc-0_8_20-e6bec787abb0e83bab6fb9ee50902c4e6c2e4e09"
}